:100000000C949C000C94E3000C94E3000C94E3002B
:100010000C94E3000C94E3000C94E3000C94E300D4
:100020000C94E3000C94E3000C94E3000C94751121
:100030000C9425120C94240D0C94E3000C94E30012
:100040000C94E3000C94E3000C94E3000C946F0D0B
:100050000C94E3000C94E3000C94E3000C94E30094
:100060000C94E3000C94E3000C94E3000C94E30084
:100070000C94E3001808180A080A500009004F0001
:100080000403300000001E037300690078006B0059
:10009000650079006B006500790062006F00610007
:1000A00072006400000018037400650063006800BB
:1000B0006B006500790073002E007500730000006E
:1000C0000403090409022200010100A0FA09040046
:1000D0000001030101000921110100012240000774
:1000E00005810308000A1201100100000008EDFE5E
:1000F000626001000102030105010906A101050773
:1001000019E029E71500250195087501810295017F
:10011000750881010507190029FF150026FF0095C4
:1001200006750881000508190129059505750191D5
:1001300002950175039101C011241FBECFEFD2E0DB
:10014000DEBFCDBF04B603FE27C080915D01909154
:100150005E01A0915F01B09160018730904BA74094
:10016000B04BD1F410925D0110925E0110925F01CC
:100170001092600114BE84B7877F84BF0FB6F894D5
:10018000A895809160008861809360001092600063
:100190000FBEE0E0F8E1099511E0A0E0B1E0E2E98E
:1001A000F8E202C005900D92AE30B107D9F721E018
:1001B000AEE0B1E001C01D92AD35B207E1F70E949B
:1001C000D40E0C943D140C94000008950C947C0102
:1001D000CF93DF933F98479A84B18F7584B985B1E7
:1001E000806A85B98AB18D7A8AB98BB182658BB9FB
:1001F000C5E1D1E01882A1E1B1E01C92E3E1F1E0B8
:100200001082198211961C921182DF91CF910C9469
:10021000DB0186B18095881F8827881F1F994DC0F4
:1002200092E0892B1D994BC094E0892B8093130198
:1002300089B186FB882780F991E08927499941C0D7
:1002400092E0892B4C993FC094E0892B8093140154
:1002500042E050E063E171E081E191E00E94EE1341
:10026000892B49F081E080930E010E94540D9093F8
:10027000100180930F0180911301809311018091EF
:1002800014018093120180910E01882391F08091D6
:100290000F01909110010E94600D459750F08091E0
:1002A0001101809315018091120180931601109223
:1002B0000E010E94E30181E0089590E0B2CF90E04A
:1002C000B4CF90E0BECF90E0C0CFE82FF0E0EB5E7F
:1002D000FE4F8081089508953C9A44983E9A46982E
:1002E000269A2E98249A2C98559A5D98529A5A9844
:1002F000539A5B980C94E50080E00E94650187307A
:1003000049F481E00E946501873021F40E9471095F
:100310000C94930D089581E0089581E008950C9464
:100320008D0108950C9491011F93CF93DF9300D01A
:1003300000D00F92CDB7DEB749835A836B833091DB
:10034000240189819A8131111DC06623B9F02223CD
:10035000A9F00E941F0B182F682F89819A810E9493
:10036000C00A69817A81812F0F900F900F900F90B2
:100370000F90DF91CF911F910C9444020E94F50AD7
:10038000182FEFCF0E941F0B69817A81EDCFFC01FE
:10039000262F408151816281738184810C94940164
:1003A000CF93DF93EC0160E00E94C701BE01DF91B3
:1003B000CF910C9492010E94F50B811102C00E9412
:1003C000920C0C946C010C94E60008950C94E501D9
:1003D00081E008950C94E801CF93C82F0E94E601B4
:1003E0008C2FCF910C94EA0108950E9471090E940C
:1003F000F4012FEF84E39CE0215080409040E1F72E
:1004000000C000000C94930D0F931F93CF93DF93C4
:10041000EC0161E00E94C7018C01BE010E948F01C6
:10042000882329F1BE01C8010E947C048823F9F0C9
:10043000BE01C8010E94BD048823C9F0BE01C801E5
:100440000E94E005882399F08A81882339F00115FC
:100450008CE5180751F00E3D1C4579F0CE01DF9177
:10046000CF911F910F910C948B010E94F50180E0B8
:10047000DF91CF911F910F9108950E94920CF7CFB9
:1004800090E080E008950895282FE62F872F90E0D0
:1004900063E070E00E94D713E80FF92FF11D822F5F
:1004A00090E066E070E00E94D713E80FF91FEE0FAE
:1004B000FF1FEC58FF4F859194910895FC01EE0FBA
:1004C000FF1FE058FF4F859194910895CF93DF93DC
:1004D0000E9444020E943503EC01C11580E5D80753
:1004E00098F5C11580E4D80708F09FC0C83ED10533
:1004F000C8F4C03ED10520F5C53AD10548F4C43052
:10050000D105F0F4C130D105D9F0D0E0C0E018C079
:10051000CE01805C9109C03CD105B8F30E945E0217
:10052000EC010EC0C11580E3D80708F074C0C115F6
:1005300080E2D80708F06CC0C11581E0D80728F325
:10054000CE01DF91CF910895C11583E5D80748F515
:10055000C11582E5D80708F070C0C11581E5D8073C
:1005600008F066C0CE0174E0969587957A95E1F71C
:1005700083702C2F26952695237030E0E5E0220F1E
:10058000331FEA95E1F7382B8C2F8370C1E0D0E060
:1005900002C0CC0FDD1F8A95E2F7C22BD32BDC689B
:1005A000CFCFC11589E5D80700F5C11588E5D80773
:1005B00008F056C0C11584E5D80708F0A6CFCE01D3
:1005C0008370992721E030E002C0220F331F8A9503
:1005D000E2F7C695C695D0E045E0CC0FDD1F4A9501
:1005E000E1F7C22BD32BDA68ABCFC1158AE5D80768
:1005F00008F08BCF8C2F8F700E94CC0394E0D6959F
:10060000C7959A95E1F7CF709C2FEC01D06998CFF0
:10061000CE019F7083CFCE019927D3FF03C0EC0199
:10062000D86C8ECFEC01D06C8BCFDF70D06A88CFC6
:10063000DC2FCC27C16FD06A83CFCE01837099277E
:1006400021E030E002C0220F331F8A95E2F7C69501
:10065000C695D0E055E0CC0FDD1F5A95E1F79DCF50
:10066000DC2FCC27C06FD06A6BCF82389105B1F1F7
:10067000B0F48133910509F475C048F489329105CD
:1006800009F469C08A32910509F473C0089585336D
:10069000910509F459C08933910501F10895833E0C
:1006A0009105A9F138F4803E9105F9F0823E91055B
:1006B00049F10895863E9105A9F1873E9105C9F15A
:1006C000843E910519F520914F0121FF1FC08091B3
:1006D0004E0184FD14C087EE90E0089520914E01F4
:1006E0002370A1F080EE90E0089520914E0120FD4E
:1006F00047C030914F0130FF09C024FF44C090E053
:1007000080E004C020914E0122FDF7CF0895209192
:100710004E0122FD3BC030914F0130FDE3CF24FF5D
:10072000F5CFEDCF20914E0123FFF0CF24FDE7CF91
:10073000D2CF20914E0123FD2CC030914F0131FFCB
:10074000EECF84EE90E0089520914E0125FFDECF9C
:1007500089E290E0089520914E0125FFD7CF85E3EF
:1007600090E0089520914E0126FFD0CF8AE290E0DC
:10077000089520914E0126FFC9CF81E390E00895AE
:1007800089E390E0089583EE90E0089582EE90E092
:10079000089586EE90E0089590914E0192FF06C074
:1007A000282F28712830F9F4877F846093FF06C0D2
:1007B000282F28712831F1F4877E846120914F0120
:1007C00020FF06C0382F38713830D9F4877F816018
:1007D00021FF06C0282F28712831D1F4877E81613E
:1007E00094FD877E0895282F24712430F9F68B7F9D
:1007F0008860DCCF282F2471243101F78B7E88613B
:10080000DDCF382F3171313019F78E7F8860E0CF1E
:10081000282F2171213121F78E7E8861E1CF0F933E
:100820001F93CF93DF93C62FD42F022FFC01828119
:100830008823C9F0609319010E94540D9093180108
:100840008093170180E28C0F883008F050C0C77089
:1008500081E001C0880FCA95EAF7DF91CF911F911F
:100860000F910C94D50710911901161335C0809182
:100870001701909118010E94600D883C910560F568
:10088000C0E2CD0F1D17B9F080E2810F883040F42F
:10089000177081E001C0880F1A95EAF70E94DC0703
:1008A000C83048F481E09D2F977001C0880F9A9559
:1008B000EAF70E94D507802F0E94C207C830B8F41B
:1008C000D77081E001C0880FDA95EAF7DF91CF9108
:1008D0001F910F910C94DC0780E28C0F883038F464
:1008E000C77081E001C0880FCA95EAF7EFCFDF91AA
:1008F000CF911F910F9108959C01CB01233F4CE5AF
:10090000340731F190F4283DFCE53F07E9F0293D3B
:100910004CE5340769F1273D3C4579F426E241EE88
:1009200061EE0E940F0480E00895253FFCE53F073B
:10093000B9F090F0263F3C45B9F0FC018281882354
:10094000D1F010921901089527E245EE65EEE9CF46
:1009500026E241EE60EEE5CF27E245EE64EEE1CF20
:1009600026E241EE62EEDDCF27E245EE66EED9CF1C
:1009700028E241E0EBCF81E00895CF93DF93EC01D3
:10098000FB018281882309F419C1C230FCE5DF072D
:10099000C0F1C6319CE5D90730F09E012A5F3C4585
:1009A0002930310570F50E94080C90934F01809317
:1009B0004E01C031ECE5DE0709F4CFC008F05BC0A2
:1009C000C8308CE5D80709F4B6C088F5C430ECE52A
:1009D000DE0709F4A8C0C0F4C2308CE5D80709F4DA
:1009E0009CC080914E018260C330DC4509F498C000
:1009F00080914E0190914F010E94160C0E94710946
:100A000080E0DF91CF91089580914E018061C630E2
:100A1000ECE5DE0709F484C080914E018860C730A0
:100A2000DC4508F47DC080914E01806279C0CC30F5
:100A30008CE5D80709F489C070F480914E018C6070
:100A4000CA30ECE5DE0709F46BC008F478C0809189
:100A50004E018E7F65C0CE308CE5D80709F479C091
:100A600080914E018B7FCF30DC4508F459C08091D6
:100A70004E018F7E55C0CB3FECE5DE0709F457C031
:100A800030F5C3318CE5D80709F46FC078F4C13173
:100A9000ECE5DE0709F465C0C231DC4509F0A8CFFA
:100AA0000E94710980914E018F773AC0C5318CE563
:100AB000D80709F462C008F476C080914F018160C4
:100AC000CA3FDC4509F094CF80934F0191CFCF3FCF
:100AD000FCE5DF0709F44DC088F480914F018D7F5C
:100AE000CD3F9CE5D90781F380914F018E7FCE3FAA
:100AF000DC4550F380914F018360E6CFC130FDE5C6
:100B0000DF0709F459C008F444C080E0C230DD4575
:100B100009F06ECF0E94940C6BCF80914E018160E2
:100B200080934E0165CF80914E018460F9CF809112
:100B30004F018260C9CF80914E018064F1CF0E9445
:100B4000710980914E018068EBCF80914E018D7FBD
:100B5000E7CF80914E01877FE3CF80914E018F7D5B
:100B6000DFCF80914E018F7BDBCF80914E01837F61
:100B7000D7CF80914F018C7FA7CF80914E0182FB10
:100B8000992790F921E0922790FB82F990FB83F955
:100B9000C7CF80914F01982F909591708E7F892BB0
:100BA00090FB81F991CF0E94710990914E01892F9C
:100BB00097FB87F98058B4CF81E0ACCF81E021CF9B
:100BC000CF93DF93EB0186319C4511F50E94C20B58
:100BD0009A81992399F08A7A91E009F490E09093B0
:100BE0001A01811109C089E20E948F0B0E94A30B98
:100BF00080E0DF91CF91089585E3F6CF80911A01CF
:100C0000811104C089E20E94960BF0CF85E3FBCFEF
:100C100081E0EFCF9093200180931F010895E09130
:100C20001F01F0912001309721F00190F081E02D1B
:100C3000099480E00895E0911F01F0912001309720
:100C400021F00280F381E02D0994089520911D0187
:100C500030911E012817390771F090931E0180937F
:100C60001D01E0911F01F0912001309721F00680D5
:100C7000F781E02D0994089520911B0130911C010A
:100C80002817390771F090931C0180931B01E091A4
:100C90001F01F0912001309721F00084F185E02DB3
:100CA00009940895089508950C94520608950C949B
:100CB00056060E9453060C94540681E008950C9445
:100CC0005D060E944B0D0E94E8000E94B70D0C9437
:100CD0005706BF92CF92DF92EF92FF920F931F932E
:100CE000CF93DF93CDB7DEB72A970FB6F894DEBF68
:100CF0000FBECDBF0E9409010E945F0632E2C32EE3
:100D000031E0D32E10E000E081111CC08FEF898309
:100D10008A831B820E94540D8160782F9D838C836F
:100D200049815A816B818D810E94420941C080E0D6
:100D300026C081E092E0F92E22C00130110531F386
:100D400001E010E0B02E802F0E946501E82EF60130
:100D5000F1906F01F81689F380913D0181FD0E94A9
:100D60006B018F2D8E25F82FF170FF2E80FDDFCFC8
:100D700081FDDFCF82FFE1CF82E024E0F22E8E837F
:100D8000BF82EF2081E009F480E088870E94540D43
:100D90008160782F9A8789874E815F8168858A85EF
:100DA0000E944209F801EE5DFE4F8081F826F08234
:100DB0000E940F06909121018917A9F00E940F0649
:100DC000809321012A960FB6F894DEBF0FBECDBFE7
:100DD000DF91CF911F910F91FF90EF90DF90CF9017
:100DE000BF900C94EC012A960FB6F894DEBF0FBEAC
:100DF000CDBFDF91CF911F910F91FF90EF90DF90CA
:100E0000CF90BF900895CF93C82F882309F469C06D
:100E10008238C1F40E940F0681FD63C089E30E94FD
:100E20008F0B0E94A30B2FEF81EE94E021508040A6
:100E30009040E1F700C0000089E30E94960BCF913B
:100E40000C94A30B8338A1F40E940F0680FD49C0C7
:100E500083E50E948F0B0E94A30B2FEF81EE94E09D
:100E6000215080409040E1F700C0000083E5E5CFCD
:100E70008438A1F40E940F0682FD33C087E40E94EB
:100E80008F0B0E94A30B2FEF81EE94E02150804046
:100E90009040E1F700C0000087E4CFCF8CEF8C0FCB
:100EA000813A90F46C2F80910001909101010E9491
:100EB000990C882329F08C2F0E94960B0E94A30B7B
:100EC0008C2F0E948F0BBBCF80E28C0F883048F4B0
:100ED000C77081E001C0880FCA95EAF70E94C50B70
:100EE000AECFCF910895882309F44BC0823871F4B6
:100EF0000E940F0681FF45C089E30E948F0B0E946C
:100F0000A30B89E30E94960B0C94A30B833859F42E
:100F10000E940F0680FF35C083E50E948F0B0E9460
:100F2000A30B83E5EFCF843859F40E940F0682FFAC
:100F300028C087E40E948F0B0E94A30B87E4E2CFB6
:100F40009CEF980F913AF0F290E2980F983050F49D
:100F5000877091E001C0990F8A95EAF7892F0E9466
:100F6000CB0BD2CF9BE5980F933020F490E080E03C
:100F70000C942606885A873120F490E080E00C9487
:100F80003C060895CF93C82F0E940307C93349F444
:100F90002FEF87EE93E0215080409040E1F700C0B2
:100FA00000008C2FCF910C947307882321F00E94AE
:100FB000C50B0C94A30B0895882321F00E94CB0B42
:100FC0000C94A30B0895CF92DF92EF92FF920F93B0
:100FD0001F93CF93DF936C01D62FC72F172F129536
:100FE0001F70FC01F280FF2009F4FCC00E94E20B9C
:100FF000183009F451C0D8F4123010F50C2F0F70CE
:10100000C07F11F00295007FFF2089F1002359F085
:1010100080E28D0F883010F0D11125C0802F0E9402
:10102000C50B0E94A30B8D2F0E94030709C01C3023
:1010300009F4C8C01F3009F4CEC0193009F4BAC091
:10104000212F2850330B2230310508F0DFC00E94D9
:101050000F06DF91CF911F910F91FF90EF90DF90DE
:10106000CF900C94EC01802F0E94D50BDACF8D2FFE
:101070000E947307002321F380E28D0F883010F067
:10108000D11106C0802F0E94CB0B0E94A30BD8CF9A
:10109000802F0E94DB0BF9CF8C2F837009F042C0A8
:1010A000F110CECF2D2F229526952770220F220FDB
:1010B0006D2F6F70C62ED12CF12CE12C022E04C0A6
:1010C000CC0CDD1CEE1CFF1C0A94D2F760E070E033
:1010D000CB01D4FF0FC06FE070E080E090E004C06F
:1010E000660F771F881F991F2A95D2F76095709514
:1010F00080959095C695C695C3706C297D298E29DB
:101100009F29C23049F058F4C13019F00E94110AE9
:1011100097CF0E94FF0994CF0E94230A91CF0E948B
:10112000FD098ECF8695FF2011F08C2F81708823CA
:1011300009F486CF2D2F229526952770220F220F96
:101140006D2F6F70C62ED12CF12CE12C022E04C015
:10115000CC0CDD1CEE1CFF1C0A94D2F760E070E0A2
:10116000CB01D4FF0FC06FE070E080E090E004C0DE
:10117000660F771F881F991F2A95D2F76095709583
:1011800080959095C695C695C3706C297D298E294A
:101190009F29C23049F058F4C13019F00E949B0ACF
:1011A0004FCF0E94890A4CCF0E94AD0A49CF0E94BE
:1011B000390A46CF8C2F8F700E94450A8D2F0E94CE
:1011C000D5073ECF4C2F4F706D2FC6010E944002B5
:1011D0000E94750935CF4C2F4F706D2FC6010E94AC
:1011E00043022ECF183009F457CF08F405CF1C3036
:1011F00049F31F3081F3193009F022CF8D2F0E945F
:10120000DC078C2F8F700E94660A1ACFDF91CF9176
:101210001F910F91FF90EF90DF90CF9008950F9363
:101220001F93CF93DF93EC01688179818A810E94BB
:101230006B0B8C010E94BF0A0E94FC09B801CE0111
:10124000DF91CF911F910F910C94E307CF93DF9320
:10125000EC018B819C81892B29F0888199818923DC
:101260008F3F19F4DF91CF910895CE010E940402BF
:101270008823C1F3CE010E940F09CE01DF91CF91E7
:101280000C94D001CF93DF93CDB7DEB72A970FB67A
:10129000F894DEBF0FBECDBF4E835F83688779872A
:1012A0008A8785E0FE013696DE01119601900D9247
:1012B0008A95E1F7CE0101960E9426092A960FB67B
:1012C000F894DEBF0FBECDBFDF91CF9108950E948D
:1012D000E20B0E94F20B0C94A30B0E949D0B0C944A
:1012E00067090E94D20B0C946D09EF92FF920F9345
:1012F0001F93CF93DF938C01892B81F0F12CEE2487
:10130000E394E8012196F8018491843770F48430E5
:1013100008F05FC08130B1F08230A1F1DF91CF9150
:101320001F910F91FF90EF900895853709F44CC0FD
:1013300008F43DC09CE7980F903780F78F770E94A4
:10134000730749C00E5F1F4FFE01849190E2980F12
:10135000983060F48770FE2D01C0FF0F8A95EAF780
:101360008F2F0E94E50B0E94A30B02C00E9403076F
:101370008F2D815030F2EFE9FFE03197F1F700C097
:101380000000F7CF0E5F1F4FFE01849190E2980F8F
:10139000983050F48770FE2D01C0FF0F8A95EAF750
:1013A0008F2F0E94EB0BDFCF0E947307E1CF0E5F00
:1013B0001F4FFE01C491C150D8F28FE99FE0019701
:1013C000F1F700C00000F7CF0E5F1F4FFE01F49051
:1013D000CFCF0E9403078E01CBCF08950C94ED0967
:1013E0000E94EE0960932E0170932F0180933001CB
:1013F000909331010C94670908950C94F0090F93B0
:101400001F9300912E0110912F01209130013091F6
:101410003101602B712B822B932B1F910F910C9418
:10142000F0090F931F9300912E0110912F0120912D
:1014300030013091310160237123822393231F9166
:101440000F910C94F0090F931F9300912E011091AE
:101450002F012091300130913101602771278227BF
:1014600093271F910F910C94F0090C94ED090C94A3
:10147000350A0E94370A60932A0170932B018093EA
:101480002C0190932D010C9467090F931F9341E059
:1014900050E060E070E004C0440F551F661F771FE6
:1014A0008A95D2F780912A0190912B01A0912C016D
:1014B000B0912D018A019B01082B192B2A2B3B2B64
:1014C000C901B8011F910F910C94390A0F931F9312
:1014D00041E050E060E070E004C0440F551F661F1B
:1014E000771F8A95D2F7CB01BA01609570958095E8
:1014F000909500912A0110912B0120912C0130919F
:101500002D0160237123822393231F910F910C944B
:10151000390A0F931F9300912A0110912B012091FA
:101520002C0130912D01602B712B822B932B1F915D
:101530000F910C94390A0F931F9300912A01109177
:101540002B0120912C0130912D01602371238223E6
:1015500093231F910F910C94390A0F931F930091BD
:101560002A0110912B0120912C0130912D0160272F
:101570007127822793271F910F910C94390A0895A0
:10158000CF93DF93362F292F220F920F890F982F99
:101590009770E1E001C0EE0F9A95EAF7869586957F
:1015A000869590E065E070E00E94D713DC01AB5DAA
:1015B000BE4F50E040E0632F70E08D91ED01219728
:1015C0009B01042E02C0369527950A94E2F72170FC
:1015D000219528272E23282728834F5F5F4F4530EA
:1015E000510559F7DF91CF910895292F220F920FBE
:1015F000890FA82FA77086958695869590E065E05F
:1016000070E00E94D713FC01EB5DFE4F50E040E01C
:1016100080E0219130E00A2E02C0369527950A9489
:10162000E2F721703327042E01C0220F0A94EAF753
:10163000822B4F5F5F4F4530510559F70895BF9298
:10164000CF92DF92EF92FF920F931F93CF93DF938E
:101650008C01C0902A01D0902B01E0902C01F090D9
:101660002D0180912E0190912F01A0913001B09118
:101670003101C82AD92AEA2AFB2ACFE1D0E0BC2EC0
:10168000D701C6010C2E04C0B695A79597958795EE
:101690000A94D2F780FD0EC0219788F7B12C8B2DCC
:1016A000DF91CF911F910F91FF90EF90DF90CF903E
:1016B000BF900895B8018C2F0E946602019761F3D4
:1016C000EECFCF93DF93EC010E941F0BBE01DF91A1
:1016D000CF910C9466021F93CF93DF93EB0190910F
:1016E0002401992331F0CB01DF91CF911F910C940C
:1016F000610B882379F0CB010E941F0B182F682FF4
:10170000CE010E94C00ABE01812FDF91CF911F91AF
:101710000C946602CB010E94F50A182FF4CF682FB3
:1017200080910001909101010C94CF0C682F809161
:101730000001909101010C94D10C809100019091D5
:1017400001010C94D30CE0910001F0910101809112
:101750003C018083E0910001F09101018081909132
:101760003B01892B8083E0910001F0910101808190
:1017700090913A01892B8083809100019091010121
:101780000C941B0680913C01089590913C01892B9B
:1017900080933C010895809590913C01982390930B
:1017A0003C01089510923C01089590913B01892BD2
:1017B00080933B010895809590913B0198239093ED
:1017C0003B01089510923B01089590913A01892BB5
:1017D00080933A010895809590913A0198239093CF
:1017E0003A01089510923A01089590E080E00E9435
:1017F000031421E08C3E9E4F09F020E0822F0895D3
:1018000082E090E00C94FB1383E090E00C94FB13D7
:10181000CF9384E090E00E94FB13C82F81E290E018
:101820000E94FB13982F8C2FCF910895CF93C92F2F
:10183000682F84E090E00E9409146C2F81E290E010
:10184000CF910C940914AB01BC018FE090E00C9493
:101850001B14AB01BC0183E190E00C941B1460E00D
:1018600070E0CB010C94290C60E070E0CB010E9489
:10187000230C0C942F0C6CEE7EEF90E080E00E9425
:10188000271460E082E090E00E94091460E083E0A9
:1018900090E00E94091410922E0110922F011092D4
:1018A00030011092310160E084E090E00E94091460
:1018B00060E081E290E00E94091460E085E090E041
:1018C0000E94091460E086E090E00E9409146FEF26
:1018D00087E090E00E94091440E050E0BA0188E0FF
:1018E00090E00E941B1460E08DE090E00E940914DB
:1018F00040E050E0BA0188E190E00E941B1460E0F3
:1019000087E190E00E94091440E050E0BA018CE1C8
:1019100090E00E941B1460E080E290E00E940914B5
:101920000C94340C0C943B0C682F8EE090E00C94DB
:101930000914662349F0FC01329608962191261776
:1019400029F0E817F907D1F780E0089581E00895BC
:101950009C01FC0132969FEF80E04191461751F0C7
:101960009F3F19F4411101C0982F8F5F8630A9F76E
:101970009F3F09F40895290F311D97FD3A95F9010C
:1019800062830895FC01329608962191261303C0C4
:10199000DF0111971C92E817F907B9F708950C9425
:1019A000A80C0C94C20C029626E0FC0111922A9518
:1019B000E9F70895089508950C94DB0C0E94DC0C5F
:1019C00080915401843049F110923E0188E190E009
:1019D00020E40FB6F894A895809360000FBE209382
:1019E000600080E00E94EC010E94DC0C83B7817FE4
:1019F000846083BF83B7816083BF7894889583B701
:101A00008E7F83BF0FB6F894A8958091600088619F
:101A100080936000109260000FBE089508950E94A8
:101A2000DA0C0E9409010E940E0D80E00E946501FF
:101A300091E0811107C081E00E94650191E0811170
:101A400001C090E0892F08951F921FB61F921124A4
:101A50008F939F93AF93BF9380913E01811113C0E9
:101A600080914A0190914B01A0914C01B0914D01A0
:101A70004196A11DB11D80934A0190934B01A09303
:101A80004C01B0934D01BF91AF919F918F911F90E9
:101A90001FBE1F90189582E084BD93E095BD9AEF1C
:101AA00097BD80936E0008952FB7F89480914A01F6
:101AB00090914B01A0914C01B0914D012FBF089521
:101AC0009C014FB7F89480914A0190914B01A091ED
:101AD0004C01B0914D014FBF821B930B0895789438
:101AE0001F921FB61F9211248F939F93AF93BF93A2
:101AF00080914A0190914B01A0914C01B0914D0110
:101B00000196A11DB11D80934A0190934B01A093B2
:101B10004C01B0934D01BF91AF919F918F911F9058
:101B20001FBE1F90189581E08093E00080E28093B3
:101B3000D8001092C9008FE19EE40197F1F700C030
:101B4000000087E090EBDC0180935D0190935E01E3
:101B5000A0935F01B093600188E19CE00FB6F89418
:101B6000A895809360000FBE90936000FFCF0E9405
:101B7000F50B811102C00E94920C0E94000C809310
:101B80003D010E94080C90934F0180934E010E94EA
:101B9000040C682F70E090E080E00C94FD098091C7
:101BA0004701089508950895CF93DF93EC010E94B3
:101BB000690F823011F0843039F581E08093E900BB
:101BC0008FEF9091E800815095FD06C095ED9A95B4
:101BD000F1F700008111F5CF8091E80085FF14C076
:101BE00050E040E068E070E0CE010E94860F8091F6
:101BF000E8008E778093E80088E0FE01AFE3B1E073
:101C000001900D928A95E1F7DF91CF9108950895A3
:101C100080915301811109C00E9412110E94651127
:101C20008091E20084608093E20008951092530155
:101C30000895089542E061EC81E00C948E1080914B
:101C40005601833009F45DC030F48130B1F1823047
:101C500009F499C008958A3009F485C08B3009F4DD
:101C60006BC0893009F04CC080915501813209F078
:101C700047C08091590190915A01892B09F040C0C9
:101C80008091E800877F8093E8008091E80082FFE0
:101C900033C08091F200823029F48091F1008B7F73
:101CA000813021F48091F100809347018091E80018
:101CB0008B778093E8000C94C21080915501813A93
:101CC000F9F48091E800877F8093E80080915901C2
:101CD00090915A01892B61F468E08FE391E070E004
:101CE0000E94D50F8091E8008B778093E8000895DB
:101CF00060E090E080E0F3CF809154018111C5CF86
:101D0000089580915501813AD9F7809159019091B8
:101D10005A01892BA9F78091E800877F8093E8001A
:101D20008091E80080FFFCCF80910C018093F1004E
:101D30008091E8008E77BDCF80915501813201F707
:101D40008091590190915A01892BD1F68091E80038
:101D5000877F8093E8000E94C21080915701809392
:101D60000C010C94710980915501813249F68091E2
:101D7000E800877F8093E8000E94C210809158019C
:101D800080934801089580915501813A09F0B8CFB8
:101D90008091E800877F8093E8008091E80080FFD1
:101DA000FCCF80914801C2CF84B7877F84BF0FB634
:101DB000F894A895809160008861809360001092EB
:101DC00060000FBE80E890E00FB6F8948093610049
:101DD000909361000FBE0E9459060E9412110E944A
:101DE00065118091E20084608093E20078940E9403
:101DF000BC130E94610682E091E00E940A06809175
:101E00005401853019F00E946906F9CF0E94DE0C5A
:101E100080915201882399F30E940F0D882379F352
:101E20000E94700FECCF0C94150F292F332723300D
:101E30003105C9F058F421303105C9F1223031059E
:101E4000D9F190E080E030E020E020C0213231057F
:101E500039F122323105A9F780E490E028EF30E033
:101E6000672B79F713C099278130910599F0009776
:101E700041F08230910589F0039719F7E0E8F0E02E
:101E800002C0E0ECF0E0849190E09F01FA01318320
:101E900020830895E6EAF0E0F6CFE6E8F0E0F3CF3D
:101EA00089E090E026ED30E0672B59F6EFCF82E134
:101EB00090E026EE30E0EACF82E290E024EC30E0E1
:101EC000E5CF80915401843011F482E0089581E0DF
:101ED000089580914901811102C00C94610F089509
:101EE00084E089BD86E089BD09B400FEFDCF809104
:101EF000D8008F7D8093D8008091E000826080932D
:101F0000E0008091E00081FDFCCF0895AF92BF9288
:101F1000CF92DF92FF920F931F93CF93DF936C01C9
:101F2000EB018A010E94E110F82E811123C00115F6
:101F3000110539F0F80180819181C81BD90BC80EB9
:101F4000D91EB12CA12C2097A9F08091E80085FD25
:101F500022C08091E8008E778093E800011511057A
:101F6000A1F0F80180819181A80EB91EB182A082F2
:101F700085E0F82E8F2DDF91CF911F910F91FF906B
:101F8000DF90CF90BF90AF9008950E94E11088231A
:101F9000D1F2F82EEFCFF60181916F018093F1001D
:101FA0002197FFEFAF1ABF0ACECFFC0180915B01F2
:101FB00090915C0186179707A0F06115710529F4CF
:101FC0009091E8009E779093E80090E0611571058C
:101FD00051F4911108C08091E80082FF32C080E086
:101FE0000895BC01F2CF809154018823B1F185306E
:101FF000B1F18091E80083FD2EC08091E80082FD60
:10200000EACF8091E80080FFE1CF2091F20030E03C
:102010006115710519F02830310558F091E028302C
:10202000310509F090E02091E8002E772093E80038
:10203000CDCF81918093F100615071092F5F3F4FA7
:10204000E7CF80915401882341F0853041F08091A1
:10205000E80083FFC0CF81E0089582E0089583E027
:102060000895FC0180915B0190915C0186179707B0
:10207000A0F06115710529F48091E8008E778093B6
:10208000E80090E06115710551F4911108C080914C
:10209000E80082FF33C080E00895BC01F2CF809158
:1020A00054018823B9F18530B9F18091E80083FDAE
:1020B0002FC08091E80082FDEACF8091E80080FF88
:1020C000E1CF2091F20030E06115710519F0283060
:1020D000310558F091E02830310509F090E0809109
:1020E000E8008E778093E800CDCF84918093F10053
:1020F0003196615071092F5F3F4FE6CF80915401B7
:10210000882341F0853041F08091E80083FFBFCF04
:1021100081E0089582E0089583E00895982F953036
:1021200028F08F708093E90081E008959093E90092
:10213000242F762F50E0981731F07091EC00209109
:10214000ED005091F00021FD02C09F5FE8CF30917B
:10215000EB003E7F3093EB003091ED003D7F3093FC
:10216000ED003091EB0031603093EB007093EC00A8
:102170002093ED005093F0002091EE0027FDE5CF75
:1021800080E008958091550187FF13C08091E80099
:1021900082FF06C08091E8008B778093E80004C03E
:1021A000809154018111F2CF0895809154018823C8
:1021B000D9F38091E80080FFF8CF8091E8008E7716
:1021C000ECCF2091E4003091E50095E6A901209143
:1021D000EC00822F817020FF06C08091E80080FF14
:1021E00006C080E008952091E80022FD1AC0809189
:1021F0005401882389F0853089F08091EB0085FDBA
:102200000FC02091E4003091E50042175307F9F226
:102210009150E1F684E0089582E0089583E0089506
:1022200081E008950E946F110E947211E0EEF0E0CB
:10223000808181608083E8EDF0E080818F7780830A
:1022400019BCE3E6F0E08081816080831092530145
:1022500008950E946F110E9472118091D8008F77AB
:102260008093D8008091D80080688093D8008091B6
:10227000D8008F7D8093D80084E089BD86E089BD39
:1022800009B400FEFDCF109254011092500110923B
:1022900052011092510142E060E080E00E948E10F5
:1022A0008091E1008E7F8093E1008091E200816067
:1022B0008093E2008091E20088608093E200809148
:1022C000E0008E7F8093E0000895E3E6F0E08081F7
:1022D0008E7F808381E0809353010C9429111092AA
:1022E000E20008951092E10008951F920F920FB638
:1022F0000F9211242F933F934F935F936F937F938C
:102300008F939F93AF93BF93EF93FF938091E100DF
:1023100082FF0BC08091E20082FF07C08091E10044
:102320008B7F8093E1000E94BB138091E10080FFCE
:1023300018C08091E20080FF14C08091E2008E7F7F
:102340008093E2008091E20080618093E2008091BE
:10235000D80080628093D80019BC109254010E946A
:10236000160E8091E10084FF2BC08091E20084FF73
:1023700027C084E089BD86E089BD89B5982F91701A
:1023800080FFFBCF8091D8008F7D8093D800809113
:10239000E1008F7E8093E1008091E2008F7E809348
:1023A000E2008091E20081608093E2008091500120
:1023B000882309F443C084E0809354010E94080EEE
:1023C0008091E10083FF29C08091E20083FF25C056
:1023D0008091E100877F8093E10082E08093540147
:1023E000109250018091E1008E7F8093E1008091F6
:1023F000E2008E7F8093E2008091E2008061809312
:10240000E20042E060E080E00E948E108091F000E7
:1024100088608093F0000E94190EFF91EF91BF91A8
:10242000AF919F918F917F916F915F914F913F916C
:102430002F910F900FBE0F901F9018958091E30081
:1024400087FD93E090935401B9CF1F920F920FB67E
:102450000F9211242F933F934F935F936F937F932A
:102460008F939F93AF93BF93CF93DF93EF93FF939C
:10247000D091E900DF708091EC00C82FC17080FD21
:10248000C0E81092E9008091F000877F8093F0000F
:1024900078940E9469121092E9008091F00088609F
:1024A0008093F000CD2BCF70C093E900FF91EF91A6
:1024B000DF91CF91BF91AF919F918F917F916F915C
:1024C0005F914F913F912F910F900FBE0F901F90F2
:1024D00018951F93CF93DF93CDB7DEB7AA970FB6AA
:1024E000F894DEBF0FBECDBF85E591E02091F100ED
:1024F000FC012193CF01F1E08D359F07B9F70E94D0
:102500001F0E8091E80083FF1EC1809155019091BC
:1025100056019A3008F017C1E92FF0E0E15CFB4E5C
:102520000C94E813803899F0823809F00CC180913E
:1025300059018F70853008F006C18093E9008091C1
:10254000EB0085FB882780F91092E90006C0809196
:10255000510190915201911182609091E800977F12
:102560009093E8008093F1001092F1008091E800D0
:102570008E77E5C0882309F4D3C0823009F0E3C028
:10258000809157018111D6C0809159018F702FEF32
:10259000280F243008F0D7C08093E9002091EB0089
:1025A00020FFC8C0933031F48091EB0080628093AB
:1025B000EB00C0C09091EB0090619093EB0021E0A4
:1025C00030E001C0220F8A95EAF72093EA001092CA
:1025D000EA008091EB008860EACF8111B4C01091CD
:1025E00057011F778091E3008078812B8093E3006F
:1025F0008091E800877F8093E8000E94C21080915C
:10260000E80080FFFCCF8091E30080688093E300C6
:1026100082E0111183E08093540195C0805882308C
:1026200008F091C080915701909158018C3D23E0B2
:102630009207A1F583E08A838AE289834FB7F894F1
:10264000DE01139620E03EE051E2E32FF0E05093EC
:102650005700E49120FF03C0E295EF703F5FEF70F9
:102660008E2F90E0EA30C0F0C7968D939D932F5F38
:10267000243159F74FBF8091E800877F8093E800AD
:102680006AE270E0CE0101960E94D50F8091E800C9
:102690008B778093E80057C0C096E7CF60915901CF
:1026A00070915A01AE014F5F5F4F0E94130FBC0142
:1026B000892B09F448C09091E800977F9093E80037
:1026C00089819A810E943110E1CF8038E1F58091B3
:1026D000E800877F8093E800809150018093F100AB
:1026E00045CF811130C090915701923060F58091B3
:1026F000E800877F8093E800909350010E94C21009
:1027000080915001882311F084E005C08091E3009E
:1027100087FDFACF81E0809354010E941A0E13C006
:1027200080915701813079F481E0933009F080E0A5
:10273000809352011092E9008091E800877F809396
:10274000E8000E94C2108091E80083FF0AC08091D7
:10275000E800877F8093E8008091EB00806280939F
:10276000EB00AA960FB6F894DEBF0FBECDBFDF9187
:10277000CF911F9108950895CF938091540188239C
:10278000A1F0C091E900CF709091EC00892F817089
:1027900090FD80E8C82B1092E9008091E80083FD4D
:1027A0000E946912CF70C093E900CF910895002470
:1027B000552704C0080E591F880F991F009729F04C
:1027C00076956795B8F37105B9F7802D952F089523
:1027D000EE0FFF1F0590F491E02D0994FB01DC0141
:1027E00004C08D910190801921F441505040C8F7E8
:1027F000881B990B0895F999FECF92BD81BDF89A77
:10280000992780B50895A8E1B0E042E050E00C942B
:102810002F14262FF999FECF92BD81BDF89A01970A
:1028200000B4021639F01FBA20BD0FB6F894FA9A18
:10283000F99A0FBE08950396272F0E940A140E944A
:102840000914252F0E940A14242F0C940A140196AF
:10285000272F0E940A140C940914DC01CB01FC01FF
:10286000F999FECF06C0F2BDE1BDF89A319600B4E9
:102870000D9241505040B8F70895F894FFCF92124E
:10288000BA12A313BA12A313ED120E13A3136513F6
:022890007113C2
:0E2892003201CF0DD40DD20DD30D070E010073
:00000001FF
